:100000000C945F000C9487000C9487000C9487007C
:100010000C9487000C9487000C9487000C94870044
:100020000C9487000C9487000C9487000C94870034
:100030000C9487000C9487000C9487000C94870024
:100040000C944A030C9487000C94EC050C941E0647
:100050000C9487000C9487000C9487000C94870004
:100060000C9487000C948700000000080002010037
:100070000003040700000000000000000102040863
:100080001020408001020408102001020408102002
:10009000040404040404040402020202020203032E
:1000A0000303030300000000250028002B000000CC
:1000B0000000240027002A0017014E062001112409
:1000C0001FBECFEFD8E0DEBFCDBF11E0A0E0B1E0B2
:1000D000E0E3F3E102C005900D92AC32B107D9F72D
:1000E00021E0ACE2B1E001C01D92AB3EB207E1F706
:1000F00010E0CCEBD0E004C02297FE010E944A0839
:10010000C83BD107C9F70E94DD070C948B090C94FA
:10011000000026E040E052EC61E070E08AE491E00B
:100120000E948A0561E08BE00E9438048CE291E035
:100130000E9438018CE291E00C94BC01CF92DF92D6
:10014000EF92FF92CF93DF936B017C01C0E0D0E090
:100150008CE291E00E944603C817D90768F4A70112
:100160009601BE018CE291E00E94D8028CE291E0FF
:100170000E94BC012196ECCFDF91CF91FF90EF90D0
:10018000DF90CF900895AF92BF92CF92DF92EF921F
:10019000FF920F931F93CF93DF938EE00E94F203A1
:1001A000EC01BC01882777FD8095982F1F921F9244
:1001B0002EE02F9321EF2F93A12CB12C6501EE247B
:1001C000EA9413E0F12E00E010E020E030E0A90115
:1001D0000E949507862F062F172F980117FF02C040
:1001E0002F5F3F4FB9017595679540E00E943D0331
:1001F00040E00E949E004AE050E0BE018AE491E0A7
:100200000E947D070F900F900F900F904AE050E0F2
:10021000B8018AE491E0DF91CF911F910F91FF9097
:10022000EF90DF90CF90BF90AF900C947D0722E5C8
:1002300030E04BE06FE070E08CE291E00C94B002B3
:100240008CE291E00C942401CF93DF93EC0188853C
:100250009985009711F00E94F5088E8187FD05C0F1
:1002600060E0DF91CF910C943804DF91CF91089535
:10027000CF93DF93EC018E8187FD07C061E00E9480
:10028000380460E08E810E94710481E08983DF91EF
:10029000CF910895EF92FF920F931F93CF93DF9327
:1002A000EC017B0188859985009711F00E94F50883
:1002B0009D858A85981303C083E090E002C084E0A6
:1002C00090E08E9D80018F9D100D9E9D100D11243C
:1002D0001D830C83C8010E945D0899878887009759
:1002E00041F0A80160E070E00E948409FB82EA828C
:1002F00004C01D821C821B821A82DF91CF911F9144
:100300000F91FF90EF900895FC0121E09585828583
:10031000981320E0CB0136E0969587953A95E1F762
:10032000482F43704587CB0154E0969587955A95A1
:10033000E1F7382F33703287CB01969587959695E4
:10034000879583708387862F8370848781E06F3FD2
:10035000710511F008F080E0808380859185892BFC
:1003600051F091E0431390E0921729F0628173817C
:10037000CF010C944A010895CF92DF92EF92FF9241
:100380000F931F93CF93DF93CDB7DEB729970FB6A7
:10039000F894DEBF0FBECDBF8C01DC0118968D91A5
:1003A0009C911997892B09F49AC00E949403F80133
:1003B000C684D784E088F1886C197D098E099F096D
:1003C000623371058105910580F3F89484819581EC
:1003D0009A838983A085B1857D01EFEFEE1AFE0A2D
:1003E0008C918987D8019C9152960D90BC91A02D3B
:1003F000F8018489992309F42EC09C91982B988741
:100400009C91809589238F838F818E8388E08D8353
:1004100058856F8149853D812E8189819A81F701B7
:100420005C9347FD252F3A952C93262F39F0441FD6
:1004300000C000006C93000000C0F2CF38E0419192
:100440006C930000019761F7F801B38BA28B498789
:100450003D832E8338C09C91982B98879C918095E2
:1004600089238F838F818C8388E08B8358856F816C
:1004700049853B812C8189819A81F7015C9347FDF5
:10048000252F00C000C02C9300C000C000C000C0D9
:1004900000C06C930000262F3A9541F0441F0000E5
:1004A00000C000C000C000C000C0E8CF38E04191EB
:1004B00000C06C9300C0019709F7F801B38BA28BC1
:1004C00049873B832C839A83898378940E94940381
:1004D000D8011E966D937D938D939C935197299689
:1004E0000FB6F894DEBF0FBECDBFDF91CF911F9145
:1004F0000F91FF90EF90DF90CF9008951F93CF93CF
:10050000DF93EC01162F8981882331F08E8187FDDE
:1005100003C060E00E9438041E838981882341F073
:1005200061E0812F0E94380460E0812F0E947104F5
:10053000812F90E0FC01E057FF4FE491F0E0EE0FD7
:10054000FF1FEC55FF4F259134913B8B2A8BFC010B
:10055000E458FF4F84918C8BDF91CF911F910895C8
:10056000EF92FF920F931F93CF93DF931F92CDB71C
:10057000DEB77C018B01FC01118217821186108687
:1005800016861786108A118AB90149830E94840150
:10059000B801C7010E944A014981642FC7010F9029
:1005A000DF91CF911F910F91FF90EF900C947E02FD
:1005B000CF92DF92EF92FF920F931F93CF93DF932F
:1005C000FC01828193816817790708F04DC0CA0148
:1005D000AA27BB27182FC32ED42EE52EFF24DC2DEF
:1005E000C22F0781002361F0809FC0011124192FC1
:1005F000C09E60011124DD2D209FC0011124C92F50
:10060000F5848285A085B185F81208C0CB01880FDA
:10061000991F860F971F8A0F9B1F17C0CB01880F4A
:10062000991F880F991F8A0F9B1F452F55276627F3
:100630007727DC01AF0DB11D002329F0409F900109
:100640001124232F01C0242F2C932285DC01A20F1B
:10065000B11D1C932385DC01A20FB11DDC93248501
:10066000FC01E20FF11DC083DF91CF911F910F912B
:10067000FF90EF90DF90CF900895962F50E060E0CC
:1006800070E0592B682BCB01BA010895FC018281DF
:10069000938108951F920F920FB60F9211242F93FA
:1006A0003F938F939F93AF93BF938091420190911B
:1006B0004301A0914401B09145013091410123E0F3
:1006C000230F2D3720F40196A11DB11D05C026E88A
:1006D000230F0296A11DB11D209341018093420179
:1006E00090934301A0934401B0934501809146014A
:1006F00090914701A0914801B09149010196A11D37
:10070000B11D8093460190934701A0934801B09397
:100710004901BF91AF919F918F913F912F910F9080
:100720000FBE0F901F9018953FB7F8948091460127
:1007300090914701A0914801B091490126B5A89B2D
:1007400005C02F3F19F00196A11DB11D3FBF6627BF
:10075000782F892F9A2F620F711D811D911D42E004
:10076000660F771F881F991F4A95D1F708957894CF
:1007700084B5826084BD84B5816084BD85B58260A6
:1007800085BD85B5816085BDEEE6F0E08081816044
:100790008083E1E8F0E01082808182608083808144
:1007A00081608083E0E8F0E0808181608083E1EB1C
:1007B000F0E0808184608083E0EBF0E08081816004
:1007C0008083EAE7F0E080818460808380818260BA
:1007D00080838081816080838081806880831092A3
:1007E000C10008958E3008F08E50877020910A0164
:1007F00090E4299F90011124822B80937C008091AA
:100800007A00806480937A0080917A0086FDFCCF24
:10081000809178002091790090E0922B08958330A8
:1008200081F028F4813099F08230A1F0089587306A
:10083000A9F08830B9F08430D1F4809180008F7DA8
:1008400003C0809180008F7780938000089584B5E5
:100850008F7702C084B58F7D84BD08958091B000EC
:100860008F7703C08091B0008F7D8093B000089592
:10087000CF93DF9390E0FC01E458FF4F2491FC01FB
:10088000E057FF4F8491882349F190E0880F991F2A
:10089000FC01E255FF4FA591B4918C559F4FFC018F
:1008A000C591D4919FB7611108C0F8948C9120959F
:1008B00082238C93888182230AC0623051F4F89499
:1008C0008C91322F309583238C938881822B88835F
:1008D00004C0F8948C91822B8C939FBFDF91CF91B1
:1008E00008950F931F93CF93DF931F92CDB7DEB779
:1008F000282F30E0F901E859FF4F8491F901E458BD
:10090000FF4F1491F901E057FF4F04910023C9F004
:10091000882321F069830E940F046981E02FF0E0B1
:10092000EE0FFF1FEC55FF4FA591B4919FB7F894C0
:100930008C91611103C01095812301C0812B8C9390
:100940009FBF0F90DF91CF911F910F910895FC01F0
:10095000818D228D90E0805C9F4F821B91098F7367
:1009600099270895FC01918D828D981731F0828D21
:10097000E80FF11D858D90E008958FEF9FEF0895AA
:10098000FC01918D828D981761F0828DDF01A80F97
:10099000B11D5D968C91928D9F5F9F73928F90E0B9
:1009A00008958FEF9FEF089584E496E0892B49F036
:1009B00080E090E0892B29F00E94440681110C947C
:1009C00000000895FC01848DDF01A80FB11DA35A1A
:1009D000BF4F2C91848D90E001968F739927848F5F
:1009E000A689B7892C93A089B1898C9180648C9356
:1009F000938D848D981306C00288F389E02D808141
:100A00008F7D80830895CF93DF93EC01888D8823B9
:100A1000C9F0EA89FB89808185FD05C0A889B9896B
:100A20008C9186FD0FC00FB607FCF5CF808185FF46
:100A3000F2CFA889B9898C9185FFEDCFCE010E94B4
:100A4000E204E7CFDF91CF910895CF92DF92FF923A
:100A50000F931F93CF93DF931F92CDB7DEB76C0137
:100A600081E0D60158968C9358975B969C915B9742
:100A70005C968C915C97981307C05096ED91FC9111
:100A80005197808185FD2EC0F601038D10E00F5F28
:100A90001F4F0F731127F02EF601848DF81211C02D
:100AA0000FB607FCF9CFD6015096ED91FC91519706
:100AB000808185FFF1CFC60169830E94E2046981CC
:100AC000EBCF838DE80FF11DE35AFF4F6083D60112
:100AD0005B960C935B975296ED91FC9153978081B6
:100AE00080620CC0D6015696ED91FC9157976083B9
:100AF0005096ED91FC91519780818064808381E0D4
:100B000090E00F90DF91CF911F910F91FF90DF90B8
:100B1000CF900895BF92CF92DF92EF92FF92CF9342
:100B2000DF93EC016A017B01B22EE889F98982E04A
:100B30008083411581EE580761057105A1F060E0E1
:100B400079E08DE390E0A70196010E94FC07215017
:100B50003109410951095695479537952795211532
:100B600080E1380798F0E889F989108260E874E834
:100B70008EE190E0A70196010E94FC072150310907
:100B8000410951095695479537952795EC85FD857F
:100B90003083EE85FF852083188EEC89FD89B08235
:100BA000EA89FB89808180618083EA89FB89808171
:100BB00088608083EA89FB89808180688083EA89F4
:100BC000FB8980818F7D8083DF91CF91FF90EF90B3
:100BD000DF90CF90BF9008951F920F920FB60F92A3
:100BE00011242F938F939F93EF93FF93E0915A01DA
:100BF000F0915B018081E0916001F091610182FDE3
:100C000012C09081809163018F5F8F732091640186
:100C1000821751F0E0916301F0E0E65BFE4F958FA3
:100C20008093630101C08081FF91EF919F918F912B
:100C30002F910F900FBE0F901F9018951F920F923B
:100C40000FB60F9211242F933F934F935F936F939F
:100C50007F938F939F93AF93BF93EF93FF938AE418
:100C600091E00E94E204FF91EF91BF91AF919F91BB
:100C70008F917F916F915F914F913F912F910F9045
:100C80000FBE0F901F9018958AE491E00E94A70470
:100C900021E0892B09F420E0822F089510924D0164
:100CA00010924C0188EE93E0A0E0B0E080934E01FA
:100CB00090934F01A0935001B09351018FE091E0C8
:100CC00090934B0180934A0185EC90E090935701FB
:100CD0008093560184EC90E09093590180935801E1
:100CE00080EC90E090935B0180935A0181EC90E05E
:100CF00090935D0180935C0182EC90E090935F01A2
:100D000080935E0186EC90E0909361018093600196
:100D100010926301109264011092650110926601B5
:100D20000895CF92DF92EF92FF920F931F93CF938C
:100D3000DF937C016A01EB0100E010E00C151D055A
:100D400071F06991D701ED91FC910190F081E02D56
:100D5000C7010995892B19F00F5F1F4FEFCFC8010D
:100D6000DF91CF911F910F91FF90EF90DF90CF9087
:100D700008956115710581F0DB010D900020E9F700
:100D8000AD0141505109461B570BDC01ED91FC911F
:100D90000280F381E02D099480E090E00895DC0169
:100DA000ED91FC910190F081E02D09946BE171E0EF
:100DB0000C94B9068F929F92AF92BF92CF92DF921E
:100DC000EF92FF920F931F93CF93DF93CDB7DEB7D0
:100DD000A1970FB6F894DEBF0FBECDBF7C01C42E25
:100DE000E52FCB01D22E19A221E02D1510F02AE01B
:100DF000D22E8E010F5D1F4F8D2C912CA12CB12C6A
:100E00006C2D7E2FA50194010E94FC078C2DD29E93
:100E100080191124015011098A3014F4805D01C039
:100E2000895CF8018083211531054105510521F0C8
:100E3000C22EE32FCA01E4CFB801C7010E94B90650
:100E4000A1960FB6F894DEBF0FBECDBFDF91CF9154
:100E50001F910F91FF90EF90DF90CF90BF90AF90D8
:100E60009F908F900895CF92DF92EF92FF920F9311
:100E70001F93CF93DF93EC016A017B0121153105AC
:100E800079F4E881F9810190F081E02D642FDF9100
:100E9000CF911F910F91FF90EF90DF90CF90099429
:100EA0002A303105E9F477FF1AC06DE20E94CF06BF
:100EB0008C0144275527BA014C195D096E097F0939
:100EC0002AE0CE010E94DA06800F911FDF91CF91B8
:100ED0001F910F91FF90EF90DF90CF9008952AE03F
:100EE000B701A601CE01DF91CF911F910F91FF9025
:100EF000EF90DF90CF900C94DA060F931F93CF936F
:100F0000DF93EC019A01AB01662757FD6095762FC0
:100F10000E9433078C01CE010E94D606800F911FDC
:100F2000DF91CF911F910F9108954F925F926F9231
:100F30007F92AF92BF92CF92DF92EF92FF920F9388
:100F40001F93CF93DF93CDB7DEB729013A01621B20
:100F5000730B840B950B29893A894B895C892A1973
:100F60003B094C095D09298B3A8B4B8B5C8B9B01B0
:100F7000AC0169897A898B899C890E94EC07E41805
:100F8000F50806091709A80197010E941E082A0DF5
:100F90003B1D4C1D5D1DCA01B901DF91CF911F9111
:100FA0000F91FF90EF90DF90CF90BF90AF907F9028
:100FB0006F905F904F90089508950E94B7030E942C
:100FC000DC070E948900C4EDD4E00E94C300209792
:100FD000E1F30E94D404F9CFDB018F939F930E9429
:100FE0003D08BF91AF91A29F800D911DA39F900DD1
:100FF000B29F900D11240895A1E21A2EAA1BBB1BCB
:10100000FD010DC0AA1FBB1FEE1FFF1FA217B307D4
:10101000E407F50720F0A21BB30BE40BF50B661FEA
:10102000771F881F991F1A9469F7609570958095AE
:1010300090959B01AC01BD01CF010895052E97FB52
:101040001EF400940E94350857FD07D00E94FC074B
:1010500007FC03D04EF40C9435085095409530951C
:1010600021953F4F4F4F5F4F089590958095709514
:1010700061957F4F8F4F9F4F08950E944E08A59F07
:10108000900DB49F900DA49F800D911D1124089583
:10109000EE0FFF1F0590F491E02D0994A29FB0017F
:1010A000B39FC001A39F700D811D1124911DB29F9C
:1010B000700D811D1124911D0895CF93DF9382300F
:1010C000910510F482E090E0E091E901F091EA01ED
:1010D00020E030E0A0E0B0E0309739F1408151816C
:1010E00048175907B8F04817590771F4828193815E
:1010F000109729F013969C938E9312972CC090937F
:10110000EA018093E90127C02115310531F042172A
:10111000530718F0A901DB0101C0EF019A01BD01DD
:10112000DF010280F381E02DD7CF21153105F9F0E1
:10113000281B390B2430310580F48A819B8161158D
:10114000710521F0FB019383828304C09093EA012F
:101150008093E901FE01329644C0FE01E20FF31FC5
:101160008193919322503109398328833AC0209189
:10117000E7013091E801232B41F4209102013091E5
:1011800003013093E8012093E701209100013091A1
:1011900001012115310541F42DB73EB740910401FD
:1011A00050910501241B350BE091E701F091E80116
:1011B000E217F307A0F42E1B3F0B2817390778F02E
:1011C000AC014E5F5F4F2417350748F04E0F5F1F8D
:1011D0005093E8014093E7018193919302C0E0E0CE
:1011E000F0E0CF01DF91CF910895CF93DF93009787
:1011F00009F487C0FC01329713821282C091E90181
:10120000D091EA01209781F420813181280F391F84
:101210008091E7019091E8018217930779F5F093A7
:10122000E801E093E7016DC0DE0120E030E0AE1799
:10123000BF0750F412964D915C9113979D01411593
:10124000510509F1DA01F3CFB383A28340815181C3
:10125000840F951F8A179B0771F48D919C911197AC
:10126000840F951F02969183808312968D919C9195
:101270001397938382832115310529F4F093EA01B2
:10128000E093E9013EC0D9011396FC93EE931297C7
:101290004D915D91A40FB51FEA17FB0779F480818A
:1012A0009181840F951F0296D90111969C938E937C
:1012B0008281938113969C938E931297E0E0F0E0E5
:1012C0008A819B81009719F0FE01EC01F9CFCE01D4
:1012D000029628813981820F931F2091E701309176
:1012E000E8012817390769F4309729F41092EA01C8
:1012F0001092E90102C013821282D093E801C093D8
:10130000E701DF91CF910895DC0101C06D93415059
:101310005040E0F7089510E0CCEBD0E004C0FE01AF
:101320000E944A082296CE3BD107C9F7F894FFCF16
:101330000000EB018000010000000100000000251A
:10134000059106A704C004B20403050D0A006E61EE
:0C1350006E00696E66006F7666002E006D
:00000001FF
